:100000000C945D000C9485000C9485000C94850084
:100010000C9485000C9485000C9485000C9485004C
:100020000C9485000C9485000C9485000C9485003C
:100030000C9485000C9485000C9485000C9485002C
:100040000C948C030C9485000C94FC030C94D60344
:100050000C9485000C9485000C9485000C9485000C
:100060000C9485000C94850000000008000201003B
:100070000003040700000000000000000000000072
:10008000250028002B0000000000240027002A0083
:10009000040404040404040402020202020203032E
:1000A0000303030301020408102040800102040836
:1000B00010200102040810202E0411241FBECFEFCF
:1000C000D8E0DEBFCDBF11E0A0E0B1E0E6E4FCE0A7
:1000D00002C005900D92AA37B107D9F722E0AAE72E
:1000E000B1E001C01D92A833B207E1F710E0CDE501
:1000F000D0E004C02197FE010E941B06CC35D10739
:10010000C9F70E9478040C9421060C94000090E03A
:10011000FC01EC55FF4F249180579F4FFC018491C7
:10012000882399F090E0880F991FFC01EA57FF4F50
:10013000A591B491FC01E458FF4F859194918FB73C
:10014000F894EC91E22BEC938FBF089590E0FC01C2
:10015000E859FF4F2491FC01EC55FF4F3491FC010D
:10016000E057FF4FE491EE23C9F0222339F023300A
:1001700001F1A8F4213019F1223029F1F0E0EE0F5D
:10018000FF1FE458FF4FA591B4918FB7F894EC91FD
:10019000611126C030953E233C938FBF08952730D0
:1001A000A9F02830C9F0243049F7809180008F7D74
:1001B00003C0809180008F7780938000DFCF84B56B
:1001C0008F7784BDDBCF84B58F7DFBCF8091B0006E
:1001D0008F778093B000D2CF8091B0008F7DF9CF20
:1001E0003E2BDACF3FB7F89480917F019091800148
:1001F000A0918101B091820126B5A89B05C02F3F37
:1002000019F00196A11DB11D3FBFBA2FA92F982F3C
:100210008827BC01CD01620F711D811D911D42E037
:10022000660F771F881F991F4A95D1F70895AF92DF
:10023000BF92CF92DF92EF92FF920F931F93CF93D3
:10024000DF936C017B018B01040F151FEB015E0135
:10025000AE18BF08C017D10759F06991D601ED91CA
:10026000FC910190F081E02DC6010995892B79F769
:10027000C501DF91CF911F910F91FF90EF90DF901B
:10028000CF90BF90AF900895FC01538D448D252FE2
:1002900030E0842F90E0821B930B541710F0CF9620
:1002A000089501970895FC01918D828D981761F052
:1002B000A28DAE0FBF2FB11D5D968C91928D9F5F69
:1002C0009F73928F90E008958FEF9FEF0895FC0148
:1002D000918D828D981731F0828DE80FF11D858DFB
:1002E00090E008958FEF9FEF0895FC01918D228D8E
:1002F000892F90E0805C9F4F821B91098F73992713
:10030000089583E891E00E94750121E0892B09F4AA
:1003100020E0822F089580E090E0892B29F00E9450
:10032000810181110C9400000895FC01A48DA80F97
:10033000B92FB11DA35ABF4F2C91848D90E0019627
:100340008F739927848FA689B7892C93A089B18947
:100350008C91837080648C93938D848D981306C0E8
:100360000288F389E02D80818F7D80830895EF924C
:10037000FF920F931F93CF93DF93EC0181E0888F5F
:100380009B8D8C8D98131AC0E889F989808185FF2F
:1003900015C09FB7F894EE89FF896083E889F989D1
:1003A00080818370806480839FBF81E090E0DF91D3
:1003B000CF911F910F91FF90EF900895F62E0B8D26
:1003C00010E00F5F1F4F0F731127E02E8C8D8E11E1
:1003D0000CC00FB607FCFACFE889F989808185FF48
:1003E000F5CFCE010E949501F1CFEB8DEC0FFD2FE3
:1003F000F11DE35AFF4FF0829FB7F8940B8FEA8903
:10040000FB8980818062CFCFCF93DF93EC01888D11
:100410008823B9F0AA89BB89E889F9898C9185FD7F
:1004200003C0808186FD0DC00FB607FCF7CF8C910D
:1004300085FFF2CF808185FFEDCFCE010E9495012F
:10044000E9CFDF91CF910895089590E080E008957D
:10045000CF93DF93EC0160E08E810E94A60061E003
:100460008E810E94A60060E08E810E94A6008BE82B
:1004700091E00197F1F7DF91CF910895CF92DF924C
:10048000EF92FF920F931F93CF93DF936C017C0148
:1004900087E0E80EF11CD0E0C0E0062F10E0B801C4
:1004A0000C2E02C0759567950A94E2F76170F7010A
:1004B00081917F010E94A6002196C430D10579F771
:1004C000C601DF91CF911F910F91FF90EF90DF90C8
:1004D000CF900C942802CF92DF92EF92FF920F936D
:1004E0001F93CF93DF93EC01F62E642F8C810E9433
:1004F000A6008D818F3F19F060E00E94A6000F2DAD
:1005000010E08F8584FF25C06E0187E0C80ED11CE6
:10051000F12CE12CB8010E2C02C0759567950A9458
:10052000E2F76170F60181916F010E94A600FFEF72
:10053000EF1AFF0A88E0E816F10461F7CE01DF91B7
:10054000CF911F910F91FF90EF90DF90CF900C947F
:100550002802B80184E0759567958A95E1F7CE0188
:100560000E943E026F2DCE01DF91CF911F910F911E
:10057000FF90EF90DF90CF900C943E0240E0682F08
:1005800080E292E00C946B0281E00E94BE028BE359
:100590009FE10197F1F70895CF93DF93823029F41B
:1005A00090912F02986090932F02809333021092C3
:1005B000340280E48093350280E18093360280E546
:1005C00080933702809124020E9487008091250247
:1005D0008F3F11F00E948700809126020E948700C1
:1005E000C0E2D2E09E012052324080912F0284FD71
:1005F0000AC084E090E02196281739073CF48E81E8
:100600000E948700EFCF88E090E0F5CF8BE39DE07C
:100610000197F1F760E0809124020E94A60060E05B
:10062000809126020E94A600809125028F3F19F03A
:1006300060E00E94A60080912F0284FD34C063E038
:1006400080E292E00E943E02CBE4D6E4CE01019724
:10065000F1F763E080E292E00E943E022197F1F719
:1006600063E080E292E00E943E0283E592E001971F
:10067000F1F762E080E292E00E943E0280912F0258
:1006800080620E94BE0284E0809330028CE00E946F
:10069000BE020E94C40282E08093310286E0DF91B4
:1006A000CF910C94BE0280620E94BE028BE496E45D
:1006B0000197F1F780912F0280620E94BE0283E5CC
:1006C00092E00197F1F780912F0280620E94BE02B2
:1006D000D5CF90913302891710F08FEF890FE82F53
:1006E000F0E0E05EFD4F848980680C94BE0241E03A
:1006F0000E946B0281E090E00895FB0101900020D0
:10070000E9F73197AF01461B570BDC01ED91FC91E6
:100710000280F381E02D09941F920F920FB60F9281
:1007200011242F933F938F939F93AF93BF93809107
:100730007B0190917C01A0917D01B0917E0130916F
:100740007A0123E0230F2D3758F50196A11DB11D25
:1007500020937A0180937B0190937C01A0937D018B
:10076000B0937E0180917F0190918001A0918101E1
:10077000B09182010196A11DB11D80937F019093DC
:100780008001A0938101B0938201BF91AF919F91AD
:100790008F913F912F910F900FBE0F901F90189542
:1007A00026E8230F0296A11DB11DD2CF1F920F92F2
:1007B0000FB60F9211242F933F934F935F936F9334
:1007C0007F938F939F93AF93BF93EF93FF9383E8B0
:1007D00091E00E949501FF91EF91BF91AF919F91A0
:1007E0008F917F916F915F914F913F912F910F90DA
:1007F0000FBE0F901F9018951F920F920FB60F9279
:1008000011242F938F939F93EF93FF93E091930184
:10081000F09194018081E0919901F0919A0182FD1B
:100820001BC0908180919C018F5F8F7320919D01EF
:10083000821741F0E0919C01F0E0ED57FE4F958F5B
:1008400080939C01FF91EF919F918F912F910F9039
:100850000FBE0F901F9018958081F4CFE3E8F1E070
:100860001382128288EE93E0A0E0B0E08483958347
:10087000A683B78384E091E09183808385EC90E048
:100880009587848784EC90E09787868780EC90E05A
:10089000918B808B81EC90E0938B828B82EC90E04B
:1008A000958B848B86EC90E0978B868B118E128EC5
:1008B000138E148EE0E2F2E01382128286E191E060
:1008C000918380838CE084838FEF85838BE08683A4
:1008D00085E0878384E0808783E0818782E0828768
:1008E0001386148615861686178681E00C94CC0232
:1008F000CF93DF93CDB7DEB7A1970FB6F894DEBFE5
:100900000FBECDBF789484B5826084BD84B581600C
:1009100084BD85B5826085BD85B5816085BD8091CA
:100920006E00816080936E00109281008091810042
:10093000826080938100809181008160809381003A
:10094000809180008160809380008091B1008460FC
:100950008093B1008091B00081608093B00080915D
:100960007A00846080937A0080917A00826080931C
:100970007A0080917A00816080937A0080917A0079
:10098000806880937A001092C10082E00E94CC02BD
:100990006EE171E080E292E00E947D0387E00E94B8
:1009A000870088E00E94870089E00E94870060E05D
:1009B00087E00E94A60060E088E00E94A60060E058
:1009C00089E00E94A600E0919301F091940182E0F9
:1009D0008083E0918F01F09190011082E09191016C
:1009E000F09192018FEC808310929B01E09197012E
:1009F000F091980186E08083E0919501F091960155
:100A0000808180618083E0919501F09196018081E1
:100A100088608083E0919501F091960180818068E3
:100A20008083E0919501F091960180818F7D808394
:100A300090E4392E2AE0822E912CA12CB12C3092F8
:100A40007C0080917A00806480937A0080917A00A3
:100A500086FDFCCFE0907800F09079006DE271E0C7
:100A600083E891E00E947D0327010F2C000C6608AB
:100A7000770877FE85C06DE283E891E00E94B701B8
:100A800022273327A901241935094609570919A234
:100A90008E010F5D1F4FCA01B901A50194010E948B
:100AA000F905605DF80162938F012115310541055B
:100AB000510589F70115110529F0B80183E891E086
:100AC0000E947D036EE371E083E891E00E947D0364
:100AD000F4EFEF16F1E0FF060CF068C061E087E08C
:100AE0000E94A60061E089E00E94A60060E088E024
:100AF0000E94A6000E94C40280E00E94690361E493
:100B000071E080E292E00E947D0381E00E9469032F
:100B100061E571E080E292E00E947D030E94F200B4
:100B20006B017C0180ED482E87E0582E612C712CE2
:100B30000E94F2006C197D098E099F09683E73407E
:100B400081059105A8F381E0481A510861087108F0
:100B500098EEC90E93E0D91EE11CF11C411451041A
:100B60006104710429F780E090E0892B09F467CFD4
:100B70000E948101882309F462CF0E9400005FCFA8
:100B8000A301920119A28E010F5D1F4FCA01B90185
:100B9000A50194010E94F905605DF80162938F013F
:100BA000211531054105510589F784CF24EFE2165F
:100BB00021E0F20609F4B2CF60E087E00E94A600CF
:100BC00060E089E00E94A60061E088E00E94A60043
:100BD0000E94C40280E00E9469036DE571E080E23A
:100BE00092E00E947D0381E00E9469036EE671E05D
:100BF00091CFA1E21A2EAA1BBB1BFD010DC0AA1F9B
:100C0000BB1FEE1FFF1FA217B307E407F50720F075
:100C1000A21BB30BE40BF50B661F771F881F991FF0
:100C20001A9469F760957095809590959B01AC0139
:100C3000BD01CF010895EE0FFF1F0590F491E02D47
:060C40000994F894FFCFB7
:100C460000000000B70117014401040275015301B9
:100C56006701000000007703170125022402536F85
:100C6600696C204D6F6973747572653A004D6F69D2
:100C76007374757265204C6576656C3A20000D0AB2
:100C8600005761746572204C6576656C204C6F77F1
:100C9600005761746572696E672E2E2E0057617457
:100CA6006572204C6576656C2048696768004E6FF2
:0A0CB600205761746572696E6700D3
:00000001FF
